{
  "contractName": "firstSmartContract",
  "abi": [
    {
      "constant": true,
      "inputs": [],
      "name": "getHelloWorld",
      "outputs": [
        {
          "internalType": "string",
          "name": "",
          "type": "string"
        }
      ],
      "payable": false,
      "stateMutability": "view",
      "type": "function"
    },
    {
      "constant": false,
      "inputs": [
        {
          "internalType": "string",
          "name": "newHelloWorld",
          "type": "string"
        }
      ],
      "name": "setHelloWorld",
      "outputs": [],
      "payable": false,
      "stateMutability": "nonpayable",
      "type": "function"
    },
    {
      "constant": false,
      "inputs": [
        {
          "internalType": "address payable",
          "name": "afortunado",
          "type": "address"
        }
      ],
      "name": "sendMoney",
      "outputs": [],
      "payable": true,
      "stateMutability": "payable",
      "type": "function"
    }
  ],
  "bytecode": "0x60806040526040518060400160405280600b81526020017f68656c6c6f20776f726c640000000000000000000000000000000000000000008152506000908051906020019061004f929190610062565b5034801561005c57600080fd5b50610107565b828054600181600116156101000203166002900490600052602060002090601f016020900481019282601f106100a357805160ff19168380011785556100d1565b828001600101855582156100d1579182015b828111156100d05782518255916020019190600101906100b5565b5b5090506100de91906100e2565b5090565b61010491905b808211156101005760008160009055506001016100e8565b5090565b90565b6103c2806101166000396000f3fe6080604052600436106100345760003560e01c8063338ccd781461003957806390ffded81461007d578063a7ef432914610145575b600080fd5b61007b6004803603602081101561004f57600080fd5b81019080803573ffffffffffffffffffffffffffffffffffffffff1690602001909291905050506101d5565b005b34801561008957600080fd5b50610143600480360360208110156100a057600080fd5b81019080803590602001906401000000008111156100bd57600080fd5b8201836020820111156100cf57600080fd5b803590602001918460018302840111640100000000831117156100f157600080fd5b91908080601f016020809104026020016040519081016040528093929190818152602001838380828437600081840152601f19601f82011690508083019250505050505050919291929050505061022c565b005b34801561015157600080fd5b5061015a610246565b6040518080602001828103825283818151815260200191508051906020019080838360005b8381101561019a57808201518184015260208101905061017f565b50505050905090810190601f1680156101c75780820380516001836020036101000a031916815260200191505b509250505060405180910390f35b473411156101e257600080fd5b8073ffffffffffffffffffffffffffffffffffffffff166108fc349081150290604051600060405180830381858888f19350505050158015610228573d6000803e3d6000fd5b5050565b80600090805190602001906102429291906102e8565b5050565b606060008054600181600116156101000203166002900480601f0160208091040260200160405190810160405280929190818152602001828054600181600116156101000203166002900480156102de5780601f106102b3576101008083540402835291602001916102de565b820191906000526020600020905b8154815290600101906020018083116102c157829003601f168201915b5050505050905090565b828054600181600116156101000203166002900490600052602060002090601f016020900481019282601f1061032957805160ff1916838001178555610357565b82800160010185558215610357579182015b8281111561035657825182559160200191906001019061033b565b5b5090506103649190610368565b5090565b61038a91905b8082111561038657600081600090555060010161036e565b5090565b9056fea265627a7a7231582044974516136abc487a250a4ef609da9a4f401e4b4550a1faca78c726cab9ac9664736f6c63430005100032",
  "source": "// SPDX-License-Identifier: MIT\npragma solidity >=0.4.22 <0.9.0;\n\ncontract firstSmartContract {\n    string helloWorld = \"hello world\";\n\n    function getHelloWorld() public view returns (string memory){\n         return helloWorld;       \n    }\n\n    function setHelloWorld(string memory newHelloWorld) public{\n        helloWorld = newHelloWorld;\n    }\n\n\n    function sendMoney(address payable afortunado) payable public{\n        require(msg.value <= address(this).balance);\n        afortunado.transfer(msg.value);\n    }\n}\n",
  "sourcePath": "C:\\Users\\Kike\\Desktop\\FirstSmartContract\\firstSmartContract\\contracts\\firstSmartContract.sol",
  "compiler": {
    "name": "solc",
    "version": "0.5.16+commit.9c3226ce.Emscripten.clang"
  },
  "schemaVersion": "3.4.3",
  "updatedAt": "2021-08-18T12:35:09.178Z",
  "devdoc": {
    "methods": {}
  },
  "userdoc": {
    "methods": {}
  }
}